:400000000080002011000000990200009902000008B5044B1A6803F53F5302331A6000F05BF900BFFA46004010B5054C237833B9044B13B10448AFF300800123237010BDED
:400040006081FF1F0000000040210000084B10B51BB108490848AFF300800848036803B910BD074B002BFBD0BDE81040184700BF000000006481FF1F40210000C880FF1F10
:400080000000000010B590B062B60121002000F0FFFA00F035FB0028FBD0052000F078F9013422460749684601F026FC642000F06FF9684600F0E6FB4FF4C87000F068F98A
:4000C000EEE700BF44210000FEE700BFF0B40022174611E050F82760F3B226F0FF0608E001EB420511F812406D78A5550132013BDBB2002BF4D101370B2FEBD9F0BC7047E6
:40010000064B1B78DBB203F00701054A11701B09013213704422034B1A707047CF0100496E5800407658004008B50A46002101F0DAFB08BD38B506221E4B1A705222A3F5BA
:4001400080731A701C4B1B78DBB21C4A13704FF4E1621B4B1A8041F25122023B1A80002419250CE0174B1B7803F0010343EA440404F003044FF4F07001F03EFB013D0DB11C
:40018000032CEFD115B90320FFF79EFF0E4A4FF4807313800723137000230C490B704820023108701370053213700222084B1A7038BD00BF004300400F010049A146004003
:4001C000224200402542004004400040064000400140004008B501F07BFB08BD38B572B6214A137843F00403137000240CE01F4D630019194A0011462A4408469188285871
:40020000FFF792FF0134E4B2072CF0D918494FF09040FFF75BFF174A137843F0020313701032137843F0020313700A2212491348FFF7D0FF082212491248FFF7CBFF124ADF
:40024000137843F008031370104C61232370FFF771FF81232370FFF753FF0E220C490D48FFF7B8FF38BD00BFE84600404C21000030000048035001406C000048F051004083
:4002800078000048125100402243004000480040A0430040B043004008B501F0EDFA03680C2B00D1FEE7FEE708B5094B1A681044084BC31A802B02DC054B186005E001F048
:4002C000DBFA0C2303604FF0FF32104608BD00BFCC80FF1F6882FF1F08B5104E104D16E029686B68AC68002204E051F8040B43F8040B0432A242F8D1E868002203E00021F4
:4003000043F8041B04328242F9D11035013E002EE6D101F0B7FAFFF7B5FEFEE7010000004823000008B5104A104B1A60104A136843F40073136000230AE0032B03D80D4A4F
:4003400052F8231000E00C490C4A42F8231001332F2BF2D90A4B1A780A4B1A70074A0A4B1A60FFF73BFF08BD0004FA050CED00E014ED00E000000000990200000080FF1FDE
:40038000BC760040C080FF1F08ED00E001BE704710B5044605E0084B186801F02DFAA4F50044B4F5004FF6D8034B586800FB04F001F022FA10BD00BFD080FF1F08B5034B91
:4003C0001B7A00FB03F001F017FA08BDD080FF1F70B504460E46074B1D681F2802D90020FFF7D4FF04F01F04103455F8240045F8246070BD08ED00E038B504460D46072957
:4004000002D90020FFF7C2FF1F2C02D90020FFF7BDFF04F01F0000F1604000F564406D01EDB2057038BD00BF134B1B78DBB20360124A127843EA02230360114A127843EA11
:40044000024303600F4A127843EA026303600E4B1B78DBB243600D4A127843EA022343600B4A127843EA024343600A4A127843EA02634360704700BF0301004904010049F2
:40048000EC4600400201004901010049000100490501004906010049F8B501F0B5F90746404A137843F0010313701032137843F00103137001263C4B1E700225943B1D709C
:4004C00002F5E2521B32137803F07F0313700020FFF774FF354C237803F0F9032370344A137803F0DF0313702378334323703046FFF764FF2820FFF761FF2E4B1A7802F06B
:400500007F021A701A7802F0BF021A7023782B4323702846FFF752FF237843F0040323700024254B1C7001331C70384601F070F907211720FFF760FF20491720FFF748FFDF
:4005400007211820FFF758FF1D491820FFF740FF07211520FFF750FF1A491520FFF738FF07212046FFF748FF17492046FFF730FF07213046FFF740FF14493046FFF728FF1B
:4005800007212846FFF738FF11492846FFF720FF07210C20FFF730FF0E490C20FFF718FFF8BD00BFA54300409D6000409443004012600040F8510040846000408D0E0000A8
:4005C000750C0000890E0000E90D0000190E00004D0E0000950E000008B5214B18700023204A1370204A1370204A1370204A1370204A1370204A1370204A1370204B4FF4CB
:4006000000021A604FF080721A604FF400121A6001221A6002221A6004221A6011B1012906D00BE0174A137803F0FE0313700AE0144A137843F00103137004E0114A137882
:4006400043F00103137003220F4B1A708022203B1A70012001F0D0F804220C4B1A7008BDA581FF1FA881FF1FC481FF1FC781FF1FBC81FF1FC681FF1FC981FF1FA481FF1FCB
:4006800000E100E009600040286000401260004038B504460D46064B1B7823B9FFF7FCFE0122034B1A7029462046FFF795FF38BD7C81FF1F00230A4A13700A4A13700A4A8D
:4006C00013700A4A13700A4A13700A4A13700A4A13700322094B1A708022203B1A707047A881FF1FC481FF1FC781FF1FBC81FF1FC681FF1FC981FF1FA481FF1F2860004097
:40070000014B1878704700BFC781FF1F431EDBB2072B3CD8F0B4074600EB4004A3001C4C2344DB889BB2C3F500739A4208D900EB400293002344DA8892B2C2F5007292B269
:4007400000EB4004A300124C2344DB7843EA1223104D04012E192B55D3B2737039B909E0CE5C3D010C4C665501339BB200E000239A42F5D8420002449300054A1344002236
:400780005A705A79D2B20001044B1A54F0BC7047CC81FF1FFC5F004078600040FE5F00400246002001E0013080B2135C002BFAD1704700BF10B4FF2400230EE0094AD25C3C
:4007C00002EB42029100084A11448A7AD2B2824201D11C4602230133DBB2012BEED9204610BC70479481FF1FCC81FF1F10B5204C2079FFF7DFFF237813F0800F0ED063782C
:40080000DBB2212B2FD11B4B07221A80C0EBC000194A1044586000F09BFA10BD144B5B78DBB2202B02D0222B10D01EE0114A07231380C0EBC00310490B4453600F4A135CDA
:4008400043F00103135400F0ABFA10BD084B9B780B4A22F81030094A135C43F00203135400F034F910BD002010BD002010BD00BF00600040B081FF1FE080FF1F8C81FF1FE7
:40088000A081FF1F2DE9F8438046234B1B78234AD65CF6B2FFF784FF05460027344606EB460293001E4A13441B899BB29D4209D906EB460293001A4A1344B3F808901FFA15
:4008C00089F900E0A9464A4608EB07013046FFF71DFFC9EB0505ADB245B906EB460293000F4A13441B899BB2994510D14F44BFB204EB440293000A4A13445B7813F0FF0FF2
:40090000F6D025B9002211463046FFF7FFFE002DC4D1BDE8F88300BF7D81FF1F9081FF1FCC81FF1FC37803F0030390F9020000280FDA032B06D002F001030B48C15442F076
:4009400001020EE0C2F380030848C15442F0040207E0032B05D0C2F340030548C15442F002021046704700BF9081FF1F9481FF1F9881FF1F1D4B19781D4A13889BB20B443B
:400980009BB2138000220FE01A494B681B78DBB2194883544B6801334B600132D2B20B889BB2013B9BB20B80124B1B889BB20BB1072AE9D90D4B1B78DBB2082B00D05AB119
:4009C0000E490B7883F080030B700F210C4B197002210C4B197004E0022309490B7009490B70094B1A70014B1A707047A481FF1FA681FF1FB081FF1F006000403A82FF1F3A
:400A0000C581FF1FA881FF1FC881FF1F0222074B1A708022064B1A700F22064B1A700023054A1370054A137001207047A881FF1F3A82FF1FC581FF1FA481FF1FC881FF1F4D
:400A400008B5FFF797FF08BD10B4194B197801F00F010239C9B2174A13889BB20B449BB21380002011E0144A5468144B1B5CDBB223705368013353600130C0B20139C9B265
:400A800013889BB2013B9BB213800B4B1B889BB20BB10029E7D10A4B19700A4A137883F0800313700B22084B1A7010BC704700BF29600040A681FF1FB081FF1F00600040D0
:400AC000C881FF1F3A82FF1FC581FF1F0623064A1370064A13708022054B1A700022054B1A700120704700BFA881FF1FC581FF1F3A82FF1FC881FF1F064B9B6843B1054BEF
:400B00009A6810709A6804490988518000229A60704700BFB081FF1FA681FF1F08B5134B1A78D2B21A701B78DBB213F0800F02D00F4A137008BD0220FFF7DEFF0D4B1B789C
:400B400003F06003202B05D0402B06D043B900F093FC06E000F060FE03E000F037FE00E0002010B90322024B1A7008BD28600040C581FF1F0060004008B5094B1978094ABC
:400B800013889BB20B449BB213800022064B1A700120FFF7B1FF0322044B1A7008BD00BFA481FF1FA681FF1FA881FF1FC581FF1F08B50B4B1B78DBB2042B06D0062B07D065
:400BC000022B0BD1FFF7D8FF08BDFFF73DFF08BD0320FFF791FF0322024B1A7008BD00BFA881FF1FC581FF1F08B50022044B1A700120FFF781FF0322024B1A7008BD00BFC0
:400C0000A881FF1FC581FF1F08B50B4B1B7813F0FF0F07D0084A137843F0800307490B70002313700022064B1A700120FFF764FF0322044B1A7008BDC681FF1F0860004030
:400C4000A881FF1FC581FF1F08B5094B1B78DBB2042B06D0062B07D0022B07D1FFF7F0FE08BDFFF7C1FF08BDFFF7CEFF08BD00BFA881FF1F08B5284B1B78DBB213F0100F62
:400C800048D013F0800F0CD003F00F03012B16D1FFF744FF214B1B7813F0800F11D1012312E013F0400F03D0FFF7CEFF01230BE013F0200F07D0FFF77BFF012304E0002339
:400CC00002E0002300E0002323B3134B1B7813F0800F1FD1124B1B78124A12781343124A13701278D2B2934214D10C4B1B78DBB2094A127812F0800F07D1084B1B78DBB2A0
:400D0000054A1370137803F00F03044A1278D2B29342EAD108BD00BF28600040C581FF1F3A82FF1FC881FF1F296000400022064B1A80064B9B682BB1044A916800230B7089
:400D400092685380704700BFA681FF1FB081FF1F08B50F4B1B889BB213B9FFF757FE15E002220C4B1A7000220B4B1A70FFF7DEFF0A4AD179937943EA0123054A128892B287
:400D8000934201D2024A1380FFF7F4FD012008BDB081FF1FA881FF1F3A82FF1F0060004008B504220B4B1A7080220B4B1A70FFF7BDFF0A4AD179937943EA0123084A1288F1
:400DC00092B2934201D2064A13800B22054B1A70012008BDA881FF1F3A82FF1F00600040B081FF1FC581FF1F0122094B1A700F3B9B7C084B1B7B03F00303934204D0054A87
:400E0000D37B83F08003D3730122024B5A7370470B600040CC81FF1F02220A4B1A700F3B93F82230084B1B7E03F00303012B04D0054AD37E83F08003D3760122024B5A76F0
:400E4000704700BF0B600040CC81FF1F04220C4B1A700F3B93F832300A4B93F8243003F00303012B06D0074A92F8273083F0800382F827300122034B83F82520704700BFD9
:400E80000B600040CC81FF1F704700BF08B5FFF711FC08BD08B500F0A5FC08BD70B588B0054603AC174E0FCE0FC43368237035B322232B7003236B7001A8FFF7B5FA002439
:400EC00002231AE008AA224412F81C2C08A901EB121111F8141CE954581C00212954981C02F00F0208AE324412F8142C2A54DA1CA9540134E4B20433DBB2212BE2D908B035
:400F000070BD00BF7C21000010B401233EE019461A010C242148845403EB4300820020480244527912F0FF0F13D003EB430082001B480244127912F0800F04D01801194A50
:400F4000024494700AE01801164A02440820907004E01801134A0244802090704800084482000F480244D488E4B208010B4901448C71D088C0F30720C871D088C0B2087124
:400F8000D288C2F307224A710133DBB2082BBED9FF22054B1A7010BC704700BF70600040CC81FF1FFC5F00400A600040074B1A78074B03EBC2035B681A7C824204D9C00013
:400FC000103018444068704700207047A581FF1F90210000F8B5404B1B7813F0FF0F79D03D4B18780138C0B2FFF7E0FF047AC2683A4B1878C0B200236AE01178884264D149
:401000003749095CC9B25578A9425ED1917801F07F01D67806F00306DFF8C8E04D000D44AF000EEB07054FF0000C85F803C092F802C085F804C092F803C00EF807C0978880
:401040002F8192F90250002D0DDA012E01D1072700E00D274E000E44B500224E35446F7101266E700CE0012E01D1052700E009274E000E44B5001B4E35446F7100266E7025
:40108000DFF868E00F010EEB07060125B57001FA05F529448D00134929440D89C5F307250EF807500D89EDB27570CE88F6B20E4D3D44AE71CE88C6F30726EE71CE88F6B275
:4010C0002E71C988C1F30721697108320133DBB2A34292D3F8BD00BFC781FF1FBC81FF1F3882FF1FCC81FF1F70600040FC5F0040034B1A78034B03EBC2035868704700BFCB
:40110000A581FF1F9021000008B5084B18780138C0B2FFF74BFF30B142681279023200EBC203586808BD002008BD00BFC781FF1F2DE9F047002310E0724D5900CA189600B6
:40114000AC190022AA55A270E2702281A272627034462C4462710133DBB2082BECD940B90AE000226849CA546849CA540133DBB200E00023012BF4D9654B1B7813F0FF0F72
:4011800000F0BD80624B18780138C0B2FFF70EFF80464368DB7913F0400F05D05D4A137843F00103137004E05A4A137803F0FE03137098F808704FF0000A01266FE0D8F81E
:4011C0000C50002467E0AB7803F07F039E425FD1314606EB460083004A4803441B899BB2A888834206D206EB460E4FEA8E03454A134418812B784448C35CDBB268788342AA
:4012000046D195F802C0DFF8FCE04B000B4498000EEB000383F804C0EB780EF80030EB7803F0030395F90200002813DA012B02D14FF0070901E04FF00D09DFF8C8E04B0040
:4012400003EB010C4FEA8C00704480F805900121417012E0012B02D14FF0050901E04FF00909DFF8A0E04B0003EB010C4FEA8C00704480F8059000214170AB790A2B01D08B
:40128000022B05D1524631462846FFF74BFB824608350134E4B2BC4295D30136F6B2082E8DD9D8F80C0000220CE0837803F07F0310F8084B03EB43039900124B19448C7287
:4012C0000132D2B2BA42F0D3FFF71EFF124B1860002301210FE00B4D4A00501884002C44E380228992B213449BB203F0010213449BB20131C9B20829EDD9FFF705FEBDE88C
:40130000F08700BFCC81FF1F3882FF1FAC81FF1FC781FF1FC981FF1FC081FF1F08B5154B1B7903F07F035A1ED2B2072A20D8590019448A0010490A44917841F0010191704D
:401340000021D170517841F002015170127912F0800F05D01B01094A1A448D23937004E01B01064A1A4489239370FFF7AFFB08BD002008BD00600040CC81FF1FFC5F00408F
:40138000274B1B7903F07F035A1ED2B2072A44D810B5590019448A0022490A44917801F0FE0191700021D1701F4C1801215C01F07F012154517801F0FD015170127912F062
:4013C000800F13D003EB43018A0016490A445278D2B2012A04D1224602440C23937019E01B01114A1A440D23937013E003EB43018A000C490A445278D2B2012A05D11B0126
:40140000094A1A440823937004E01B01064A1A4409239370FFF75AFB10BD0020704700BF00600040CC81FF1FFC5F004010B50E4B1C79E4B20D4B18780138C0B2FFF7B6FD17
:4014400043681B799C4201D9022C0AD8084A135DDBB208490B55044B9B78DBB21355012010BD002010BD00BF00600040C781FF1F3882FF1FAC81FF1F10B59C4B1B78DBB27F
:4014800000219B4A118013F0800F00F0AD80974A5278D2B20A2A00F27481DFE812F06900720172017201720172010B007201920072019A008D4BDB78DBB2012B09D1FFF75A
:4014C00017FE42688A4B5A6012221A80FFF740FC10BD864BDB78DBB2022B13D1834B9878FFF764FD002800F04E814268804B5A605A68D1785A68927842EA01221A80FFF70E
:4015000027FC10BD794BDB78DBB2032B05D02CE00A7811440133DBB201E000237549734A9278D2B2934203D20A7812F0FF0FEFD16E4B9B7813F0FF0F0BD06C4B9B78DBB258
:401540006D4A127C934204D16C4C2046FFF7A6FC21460B7813F0FF0F00F017810B78644A13805160FFF7F4FB10BD00F055F910BD13F0030317D0022B40F009815C490B800A
:401580005A4B1B7903F07F0303EB43039A005C4B1A449278D2B25B4B1A7000225A704B60FFF7D6FB10BD524902230B80564B1A78D2B2544B1A7000225A704B60FFF7C8FB46
:4015C00010BD4B4B01221A80504A5A60FFF7C0FB10BD474A01231380444B1B794C490B445360FFF7B5FB10BD404A5278013A0A2A00F2CF80DFE812F04C00CD009800CD0039
:401600000B00CD00CD00CD001300CD003000374B9B78DBB23F4A1370FFF758FA10BD334B9B7803F0FF041BB1601EC0B2FFF7BEFC04B110B9002C40F0AE80344B1B78DBB24B
:401640009C4206D0314B1C700120334B1870FFF76FFDFFF73BFA10BDFFF7E8FE002800F09C80224A1379DBB21279D2B22B490A702B4AD25CD2B22649CB5CDBB29A4204D0A1
:401680000122254B1A70FFF7A5FCFFF71FFA10BD03F00303012B17D04BB1022B7FD1134B9B7813F0FF0F7CD1FFF76AFE10BD0F4B9B78DBB2012B76D1134A137803F0FD03D3
:4016C0001370FFF703FA10BD084B1B79DBB2012B6BD8064B98781B79DBB21249CA5C22EA0002CA54FFF7F2F910BD00BF00600040B081FF1FF8210000DC2200004082FF1F42
:40170000CC81FF1F8081FF1FC981FF1FC781FF1F3882FF1FC681FF1FC481FF1FBC81FF1FAC81FF1F3C82FF1F03F00303012B17D04BB1022B3BD1224B9B7813F0FF0F38D154
:40174000FFF7ECFD10BD1E4B9B78DBB2012B32D11C4A137843F002031370FFF7B7F910BD174B1B79DBB2012B27D8154B98781B79DBB21549CA5C22EA0002CA54FFF7A6F9E2
:4017800010BD002010BD002010BD002010BD002010BD002010BD002010BD002010BD002010BD002010BD002010BD002010BD002010BD002010BD002010BD002010BD00BFBA
:4017C00000600040C981FF1F3C82FF1F044B1B7813F0800F01D0024B5B780020704700BF00600040024B1878C0F38010704700BF8F450040000000000230800803D000BF74
:4018000001380046FCD17047EFF3108072B6704780F31088704700BF08B5144B1B7803F00303012B02D0022B04D00FE00F4B1B79DBB20CE00D4B1B7903F07F0303EB430341
:401840009A000B4B1A44937ADBB200E00023022B07D8084A1268D35C022B04D1FEF7C6FF08BD002008BD002008BD00BF00600040CC81FF1FC081FF1F014B1868704700BFC0
:401880005C81FF1F0E4B70B51E460E4C0025E41AA410A54204D056F8253098470135F8E700F040FD084B094C1E46E41AA4100025A54204D056F8253098470135F8E770BD39
:4018C0003023000030230000302300003823000010B5431E0A44914204D011F8014B03F8014FF8E710BD03460244934202D003F8011BFAE7704700000EB400B54FF402711B
:401900009CB0ADF814106FF00041049107914FF6FF711DAB02900690084853F8042BADF81610006802A9019300F064F8029B00221A701CB05DF804EB03B070475C81FF1FDA
:401940002DE9F0478E6882469E420C46914698463ED88A8912F4906F3AD02568096902236F1A656905EB450595FBF3F57B1C43449D4238BF1D4653050FD5294600F040FBE3
:40198000064698B13A462169FFF7A2FFA38923F4906343F08003A38113E02A4600F08EFB064670B92169504600F0DEFA0C23CAF80030A3894FF0FF3043F04003A381BDE8AE
:4019C000F08726613E44266046466561ED1BA560464528BF464649463246206800F0A8FAA36800209B1BA36023681E442660BDE8F08700002DE9F04F9DB003938B898046DE
:401A00001C060D4616460DD50B695BB9402100F0F7FA2860286118B90C23C8F80030CDE040236B610023099320238DF82930DFF89CB130238DF82A3037463C4614F8013BCF
:401A40001BB9B7EB060910D003E0252BF9D02746F3E74B46324629464046FFF771FF013000F0A780099B4B4409933B78002B00F0A08000234FF0FF32049307930592069361
:401A80008DF853301A930126052221784E4800F041FA671C049B38B14B4A3C46801A06FA00F018430490EFE7D90644BF20228DF853201A0744BF2B228DF8532022782A2AE5
:401AC00003D0079A00210A200BE0039A111D12680391002A10DA524243F00200079204900BE027463B780134303B092B03D800FB02320121F5E701B107923B782E2B1ED12C
:401B00007B782A2B0AD1039B02371A1D1B680392002BB8BF4FF0FF33059310E0002319460593781C0A2407463A780130303A092A03D804FB01210123F5E703B105910322AD
:401B40003978224800F0E6F940B14023CBEB000003FA00F0049B013718430490397806221B487E1C8DF8281000F0D4F988B1194B33B9039B073323F007030833039314E02B
:401B800003AB00932A46144B04A94046AFF3008007E003AB00932A460F4B04A9404600F093F8B0F1FF3F824603D0099B5344099342E7AB895B0601D4099801E04FF0FF304C
:401BC0001DB0BDE8F08F00BFF0220000F6220000FA22000000000000411900002DE9F04791461F460A698B6806469342B8BF1346C9F8003091F843200C46DDF8208012B14E
:401C00000133C9F800302368990642BFD9F800300233C9F80030256815F0060510D104F1190A07E00123524639463046C04701301AD00135E368D9F800209B1A9D42F1DB0B
:401C400094F843302268003318BF012392060FD5E118302081F843005A1C94F845102244023382F8431003E04FF0FF30BDE8F08704F1430239463046C0470130F4D022684B
:401C8000D9F80050E36802F00602042A08BF5D1B2269A3680CBF25EAE57500259342C4BF9B1AED184FF000091A344D4509D00123224639463046C0470130D5D009F10109ED
:401CC000F3E70020BDE8F0872DE9F04317460A7E85B06E2A984606460C460C9B01F1430E00F0AE8011D8632A22D009D8002A00F0BB80582A40F0CA8081F84520834955E0D6
:401D0000642A1ED0692A1CD0C0E0732A00F0B08009D86F2A2ED0702A40F0B8800A6842F020020A603EE0752A24D0782A3AD0ADE01A6801F14205111D1960136884F84230EC
:401D4000A8E021681A6811F0800F02D0111D196008E011F0400F02F10401196002D0B2F9003000E01368002B3CDA2D225B4284F8432037E021681A6811F0800F02D0111D58
:401D8000196007E011F0400F02F10401196001D0138800E01368227E5C496F2A14BF0A2208221BE078225A4984F845202268186812F0800F00F104051D6003D1550601D504
:401DC000038800E00368D00744BF42F0200222601BB9226822F0200222601022002084F8430001E049490A226568002DA56008DB206820F0040020602BB9002D7DD1754681
:401E00000CE0002B79D07546B3FBF2F002FB1033CB5C05F8013D03460028F5D1082A0BD12368DA0708D5236962689A42DEBF302305F8013C05F1FF35C5EB0E0323612EE0EE
:401E400008681A6810F0800F496903D0101D1860136808E010F0400F02F104001860136801D0198000E0196000232361754616E01A68111D1960156800216268284600F011
:401E800049F808B1401B6060636804E004F1420584F8422001232361002384F84330CDF800803B4603AA21463046FFF797FE013002D14FF0FF3026E023692A463946304646
:401EC000C0470130F5D023689B0710D5002504F1190907E001234A4639463046C0470130E7D00135E368039A9B1A9D42F2DBE068039B9842B8BF184605E00B7804F1420560
:401F000084F842308AE705B0BDE8F083012300001223000010B5C9B202449042034605D01C7801308C42F8D1184610BD002010BD884210B501EB020301D8421E0BE09842B4
:401F4000FBD28118D21AD34204D013F8014D01F8014DF8E710BD994204D011F8014B02F8014FF8E710BD000038B50546002944D051F8043C0C1F002BB8BFE41800F0D4F85D
:401F80001E4A1368114613B96360146030E0A3420DD92268A018834201BF18685B681218226063600C6023E0A24203D813465A68002AF9D118681918A1420BD12168014415
:401FC00058188242196013D110685268014419605A600DE002D90C232B6009E021686018824201BF106852680918216062605C602846BDE8384000F098B838BD8881FF1F7D
:4020000070B5CD1C25F0030508350C2D38BF0C25002D064601DBA94202D90C23336046E000F082F8234B1C681A462146A1B10B685B1B0ED40B2B03D90B60CC18CD501EE018
:402040008C420BBF63684B681360636018BF0C4615E00C464968E9E7174C23681BB9304600F052F820602946304600F04DF8431C18D0C41C24F00304A0420DD1256030461A
:4020800000F053F804F10B00231D20F00700C31A0ED05A42E25070BD211A304600F034F80130EBD10C233360304600F03EF8002070BD00BF8881FF1F8481FF1FF8B5074670
:4020C00015460E4621B91146BDE8F840FFF798BF1AB9FFF749FF2846F8BD00F027F885420ED929463846FFF78BFF044650B131462A46FFF7EDFB31463846FFF735FF01E068
:402100003046F8BD2046F8BD38B5064C0023054608462360FEF7C8F8431C02D1236803B12B6038BD6482FF1F7047704751F8040C0028BEBF091851F8043CC0180438704750
:4021400000000000256C640D0A000000005100401000205100405000C0510040100000000140001000140140000800400140000A004C014000020050014020003031323311
:4021800034353637383941424344454600000000010000009821000001000000DC220000000000000000000001000000B0210000010000009822000003000000DC210000FD
:4021C0000000000000000000000000000000000000000000D8210000020A000000008103080002000100820240000A000100030240000A0002030000040309042C034300A2
:402200007900700072006500730073002000530065006D00690063006F006E0064007500630074006F0072001003550053004200550041005200540038034300440043003B
:40224000200043006F006D006D0075006E00690063006100740069006F006E00200049006E007400650072006600610063006500260343004400430020004400610074000B
:402280006100200049006E007400650072006600610063006500000009024300020101803209040000010202010305240010010424020205240600010524010001070581A4
:4022C0000308000A09040100020A0000040705820240000007050302400000001201000202000008B40432F20100010280014300232D302B2000686C4C00656667454647D8
:40230000003031323334353637383941424344454600303132333435363738396162636465660000F8B500BFF8BC08BC9E4670474D00000025030000F8B500BFF8BC08BCC1
:402340009E4670472900000058230000C880FF1F9800000008010000000000006882FF1F0000E02EC05D00001800000000366E0100C2010000000800C20100000008000091
:40238000A120000000000200000000000000000000000000000000000000000000000000000000000000000000000000EE220000000000000000000000000000000000004A
:4023C0000000000000000000000000000000000000000000000000000000000000000000000000000000000000000000FC80FF1F0000000000000000000000000000000043
:40240000000000000000000000000000000000000000000000000000000000000000000000000000000000000000000000000000000000000000000000000000000000009C
:40244000000000000000000000000000000000000000000000000000000000000000000000000000000000000000000000000000000000000000000000000000000000005C
:40248000000000000000000000000000000000000000000000000000000000000000000000000000000000000000000000000000000000000000000000000000000000001C
:4024C00000000000000000000000000000000000000000000000000000000000000000000000000000000000000000000000000000000000000000000000000000000000DC
:020000040003F7
:0200000480007A
:4000000001450040015200400217014002190140034001400341014003420140034301400447014004480140024C0140015101407E027C40EA02EE0AEA02EE0A3381364072
:40004000CC709F01A640A7809F01A640A7809F01A640A78008080B040F40C20EAE40AF81EA40EE50AC08AF44002A00004000000000000000C0000000000B0B000000000092
:400080000000000000000000000000000000000000000000000000000000000000000000000000000000000000000000000000000000000000000000000000000000000040
:4000C0000000000000000000000000000000000000000000000000000000000000000000000000000000000000000000000000000000000000000000000000000000000000
:4001000000000000000000000000000000000000000000000000000000000000000000000000000000000000000000000000000000000000000000000000000000000000BF
:40014000000000000000000000000000000000000000000000000000000000000000000000000000000000000000000000000000000000000000000000000000000000007F
:0200000490006A
:0400000000004005B7
:0200000490105A
:04000000BC90ACAF55
:0200000490303A
:020000000BD61D
:0200000490402A
:4000000000000000000000000000000000000000000000000000000000000000000000000000000000000000000000000000000000000000000000000000000000000000C0
:400040000000000000000000000000000000000000000000000000000000000000000000000000000000000000000000000000000000000000000000000000000000000080
:400080000000000000000000000000000000000000000000000000000000000000000000000000000000000000000000000000000000000000000000000000000000000040
:4000C0000000000000000000000000000000000000000000000000000000000000000000000000000000000000000000000000000000000000000000000000000000000000
:0200000490501A
:0C00000000012E16106900012E231C3F89
:00000001FF